:020000040800F2
:1000000000000120C5020008CB020008CF02000852
:1000100041030008450300088D03000800000000AC
:10002000000000000000000000000000D5030008F0
:10003000D903000800000000DD03000825110008B6
:10004000F1030008F1030008F1030008F1030008C0
:10005000F1030008F10300084115000859150008D4
:10006000F1030008F1030008F1030008F1030008A0
:10007000F1030008F1030008F1030008F103000890
:10008000F1030008F1030008F1030008000000007C
:1000900000000000000000000000000071150008D2
:1000A000F1030008F1030008F1030008F103000860
:1000B000F1030008F1030008F1030008F103000850
:1000C000F1030008F1030008F1030008F103000840
:1000D000F1030008F1030008F1030008000000002C
:1000E000F1030008F1030008F1030008000000001C
:1000F000000000000000000000000000F103000804
:1001000000000000F1030008F1030008F1030008FB
:1001100000000000000000000000000000000000DF
:10012000F1030008F1030008F1030008F1030008DF
:10013000F1030008000000000000000000000000C3
:10014000000000000000000000000000F1030008B3
:10015000F1030008F1030008F1030008F1030008AF
:10016000F1030008F1030008000000000000000097
:10017000000000000000000000000000000000007F
:1001800000000000F1030008000000000000000073
:10019000F103000800B583B000F0BAF9384B394AD2
:1001A0001360394A1360394900E02146384B9942BF
:1001B0000BD20A684B6801F10C0488689842F4D9A4
:1001C0001168196004330432F8E72E4B1A68314B7A
:1001D0009A4200D0FEE72C4B1A682F4B9A42F9D175
:1001E000274B2E4A13602E4A13602E4B05E0002049
:1001F000106004329342FAD80B462B4A934204D241
:10020000194651F8082B5B68F4E7244B1B6813B9B7
:10021000234B1B6803B1FEE701F02EFA694601A8E3
:1002200000F022F9214C224BE41AA4100025AC4224
:1002300014DC204C204BE41AA4100025AC4213DC43
:100240000099019801F086FA05461C4C1C4BE41AF3
:10025000A410002C0EDC284600F0E2F8144B53F8F2
:10026000253098470135E2E7134B53F8253098477E
:100270000135E3E7013C124B53F824309847E8E797
:10028000BABADECA0000002074000020F40300089F
:100290000C04000878563412325476987800002006
:1002A000E80100200C0400081C0400081C040008DD
:1002B0001C0400081C0400081C0400081C0400089E
:1002C0001C04000808B5FFF765FF00BEFEE71EF03E
:1002D000040F0CBFEFF30880EFF309807146414A29
:1002E00010472DE9F04182B004468846124B5E6B00
:1002F0009F6B9D6A1B6B13F0020F03D00E4BDB6AE2
:10030000002B0CDB0D4800F0B7F8CDF800803B4621
:1003100032462946204600F007F900BEFEE74BF6BC
:10032000AB6100F07BF90028ECD0034B4FF00042AA
:10033000DA6202B0BDE8F08100ED00E0F4210008CF
:1003400000BEFEE71EF0040F0CBFEFF30880EFF3D2
:1003500009807146244A10472DE9F04182B00446D5
:100360008846084B5E6B9F6B9D6A074800F084F8D7
:10037000CDF800803B4632462946204600F0D4F8AE
:1003800000BEFEE700ED00E0042200081EF0040FAE
:100390000CBFEFF30880EFF309807146134A104752
:1003A0002DE9F04182B004468846084B5E6B9F6B96
:1003B0009D6A074800F060F8CDF800803B46324661
:1003C0002946204600F0B0F800BEFEE700ED00E050
:1003D0001022000800BEFEE700BEFEE700BEFEE7FA
:1003E00070470000E302000859030008A103000859
:0403F00000BEFEE766
:1003F4005422000800000020780000205422000845
:10040400000000100000001078000020EC01002023
:080414000000001000000010C0
:10042000FEE7000008B503460C4A12685AB10B4AB1
:100430001068033323F003030344094A934206D8A8
:10044000064A136008BD054A06491160EFE701F04E
:10045000CBF90C2303604FF0FF30F3E77C00002062
:1004600000FC0020EC01002001230360014B0B6025
:10047000704700BF040000200FB400B583B004AB88
:1004800053F8042B01938021064801F0DFF900287E
:1004900003DD0146034800F037F803B05DF804EBD4
:1004A00004B07047840000202DE9F04385B0044675
:1004B0000F4643560BB10E461EE004252846214642
:1004C000ABBE0446384605B0BDE8F08314F9011B05
:1004D00004AA1A4402F8101C0133AB42F6D304AA52
:1004E0001344002203F8102C4FF00408E94640465C
:1004F0004946ABBE8046761B002EE3D03546102E13
:1005000028BF10250023E8E708B5FFF7CDFF08BD99
:1005100008B500F093F8024A024B9A6008BD00BF8C
:100520000000000800ED00E0F8B504460D4617464F
:100530001E462748FFF7A0FF21682648FFF79CFFCB
:1005400061682548FFF798FFA1682448FFF794FFEA
:10055000E1682348FFF790FF21692248FFF78CFFED
:1005600061692148FFF788FFA1692048FFF784FFF0
:10057000E1691F48FFF780FF1E48FFF77DFF29460E
:100580001D48FFF779FF1D4CE16A1D48FFF774FF16
:10059000216B1C48FFF770FFE16B1B48FFF76CFFF6
:1005A00015F0800F0AD115F4004F0CD11748FFF752
:1005B00063FF06991648FFF75FFFF8BD39461548F7
:1005C000FFF75AFFEFE731461348FFF755FFEDE716
:1005D000D8200008E8200008F820000808210008BA
:1005E00018210008282100083821000848210008A7
:1005F00058210008682100087421000800ED00E07F
:100600008421000894210008A4210008D4210008B6
:10061000DC210008B4210008C421000883691A887D
:100620008A4201D0002070470268033A012A03D8A9
:100630000233836101207047002070470C4B1A6819
:1006400042F001021A60002199601A6822F0847257
:1006500022F480321A60074A5A601A6822F4802213
:100660001A60D960044B4FF000629A60704700BF77
:10067000003802401030002400ED00E0F0B589B0F1
:10068000044600F063FD0021084600F07DFD0121D5
:10069000002000F079FD601E042866D8DFE810F025
:1006A00005006700C900280192010021084600F0FA
:1006B0006BFD0021032000F067FD00240094CDF8BD
:1006C000034008278DF8017002268DF8026001258D
:1006D0008DF80650684600F08BFD0294CDF80B4073
:1006E00009238DF809308DF80A608DF80E500DEB56
:1006F000070000F07DFD0494CDF813400A238DF827
:1007000011308DF812608DF8165004A800F070FDBD
:100710000694CDF81B400B238DF819308DF81A6024
:100720008DF81E5006A800F063FDA34B1A6822F056
:1007300010021A601A6822F020021A601A6822F069
:1007400040021A601A6822F480721A601A6822F451
:1007500000721A609F621A6842F080021A600F22CB
:10076000DA621A635A692A435A6109B0F0BD00215E
:10077000022000F009FD00250095CDF80350052367
:100780008DF8013002268DF8026001248DF80640B4
:10079000684600F02DFDCDF80A508DF8084003277B
:1007A0008DF809708DF80A608DF80E4002A800F0EF
:1007B0001FFDCDF812508DF810400A238DF811302E
:1007C0008DF812608DF8164004A800F011FD069512
:1007D000CDF81B508DF819708DF81A608DF81E40F9
:1007E00006A800F005FD4FF080439A6842F08002B1
:1007F0009A601A6822F010021A601A6822F0200229
:100800001A601A6822F040021A601A6822F4807294
:100810001A601A6822F400721A6008229A621A6832
:1008200042F080021A600F22DA625A6922435A614A
:100830009BE70121022000F0A7FC00250095CDF8E0
:10084000035006238DF8013002248DF802408DF804
:100850000640684600F0CCFC0295CDF80B5007230B
:100860008DF809308DF80A408DF80E4002A800F08E
:10087000BFFC0495CDF8135001268DF810608DF85B
:1008800012408DF8164004A800F0B2FCCDF81A50C2
:100890008DF818608DF819608DF81A408DF81E409B
:1008A00006A800F0A5FC454B9A6842F080029A60C9
:1008B0001A6822F010021A601A6822F020021A60E8
:1008C0001A6822F040021A601A6822F480721A60D4
:1008D0001A6822F400721A6008229A621A6842F0BA
:1008E00080021A600F22DA625A6932435A613CE789
:1008F0000221084600F048FC0026CDF802600125E0
:100900008DF8005006238DF8013002248DF8024046
:100910008DF80640684600F06BFCCDF80A608DF853
:10092000085007238DF809308DF80A408DF80E40E5
:1009300002A800F05DFCCDF812608DF81050082779
:100940008DF811708DF812408DF8164004A800F053
:100950004FFCCDF81A608DF8185009238DF8193026
:100960008DF81A408DF81E4006A800F041FC144B8B
:100970009A6842F080029A601A6822F010021A60A7
:100980001A6822F020021A601A6822F040021A60E7
:100990001A6822F480721A601A6822F400721A60CF
:1009A0009F621A6842F080021A600F22DA625A6966
:1009B0002A435A61D9E600BF00000140000400400C
:1009C000000800400321022000F0DEFB0025009516
:1009D000CDF8035002248DF802408DF80640684699
:1009E00000F006FC0295CDF80B5001238DF809307C
:1009F0008DF80A408DF80E4002A800F0F9FB04952E
:100A0000CDF813508DF811408DF812408DF8164036
:100A100004A800F0EDFB0695CDF81B5003238DF8DC
:100A200019308DF81A408DF81E4006A800F0E0FB42
:100A3000124B9A6842F080029A601A6822F0100203
:100A40001A601A6822F020021A601A6822F0400226
:100A50001A601A6822F480721A601A6822F400720E
:100A60001A6008229A621A6842F080021A600F2205
:100A7000DA625A6942F001025A6176E6000C0040DF
:100A800010B401280DD0022800F0B680032800F031
:100A90004D81042800F0DE81052800F06F8210BC33
:100AA000704701292ED0022954D003297BD0042974
:100AB000F5D19D4B196A21F480511962186A5C685E
:100AC000D96921F44C5141F4C04120F4005024F480
:100AD00080445C60D9611A641862DA6942F4006289
:100AE000DA61DA6942F48062DA611A6A42F48052A9
:100AF0001A625A6C42F400425A641A6842F00102C7
:100B00001A60CCE7884B196A21F001011962196A51
:100B10005868996921F0730141F0600120F4007078
:100B2000586099615A6300221A629A6942F0080279
:100B30009A619A6942F004029A611A6A42F00102CB
:100B40001A625A6C42F400425A641A6842F0010276
:100B50001A60A4E7744B196A21F010011962186A2F
:100B60005C68996921F44C5141F4C04120F0E000E7
:100B700024F440645C6099619A6318629A6942F453
:100B800000629A619A6942F480629A611A6A42F03C
:100B900010021A625A6C42F400425A641A6842F017
:100BA00001021A607BE7604B196A21F480711962B7
:100BB000186A5C68D96921F0330141F0600120F4C2
:100BC000606024F440545C60D961DA631862DA69C9
:100BD00042F00802DA61DA6942F00402DA611A6A64
:100BE00042F480721A625A6C42F400425A641A68E3
:100BF00042F001021A6052E701292AD002294BD0A3
:100C000003296DD004297FF44AAF4FF08043196A5D
:100C100021F480511962186A5C68D96921F44C5139
:100C200041F4C04120F400505C60D9611A6418623C
:100C3000DA6942F40062DA61DA6942F48062DA6108
:100C40001A6A42F480521A621A6842F001021A606B
:100C500025E74FF08043196A21F001011962196AF2
:100C60005868996921F0730141F0600158609961F9
:100C70005A6300221A629A6942F008029A619A69DC
:100C800042F004029A611A6A42F001021A621A687A
:100C900042F001021A6002E74FF08043196A21F026
:100CA00010011962186A5C68996921F44C5141F489
:100CB000C04120F0A0005C6099619A6318629A6953
:100CC00042F400629A619A6942F480629A611A6AF7
:100CD00042F010021A621A6842F001021A60DEE65F
:100CE0004FF08043196A21F480711962186A5C68B8
:100CF000D96921F0330141F0600120F420605C608B
:100D0000D961DA631862DA6942F00802DA61DA69F5
:100D100042F00402DA611A6A42F480721A621A68B6
:100D200042F001021A60BAE600000140012929D010
:100D3000022949D003296AD004297FF4B0AEA54B1B
:100D4000196A21F480511962186A5C68D96921F422
:100D50004C5141F4C04120F400505C60D9611A64E8
:100D60001862DA6942F40062DA61DA6942F4806298
:100D7000DA611A6A42F480521A621A6842F0010279
:100D80001A608CE6934B196A21F001011962196A05
:100D90005868996921F0730141F0600158609961C8
:100DA0005A6300221A629A6942F008029A619A69AB
:100DB00042F004029A611A6A42F001021A621A6849
:100DC00042F001021A606AE6824B196A21F01001B2
:100DD0001962186A5C68996921F44C5141F4C04168
:100DE00020F0A0005C6099619A6318629A6942F4ED
:100DF00000629A619A6942F480629A611A6A42F0CA
:100E000010021A621A6842F001021A6047E6714B3A
:100E1000196A21F480711962186A5C68D96921F035
:100E2000330141F0600120F420605C60D961DA6335
:100E30001862DA6942F00802DA61DA6942F0040203
:100E4000DA611A6A42F480721A621A6842F0010288
:100E50001A6024E6012929D0022949D003296AD041
:100E600004297FF41CAE5C4B196A21F4805119628D
:100E7000186A5C68D96921F44C5141F4C04120F4EE
:100E800000505C60D9611A641862DA6942F4006249
:100E9000DA61DA6942F48062DA611A6A42F48052F5
:100EA0001A621A6842F001021A60F8E54A4B196AA0
:100EB00021F001011962196A5868996921F07301DA
:100EC00041F06001586099615A6300221A629A6980
:100ED00042F008029A619A6942F004029A611A6A21
:100EE00042F001021A621A6842F001021A60D6E565
:100EF000394B196A21F010011962186A5C68996906
:100F000021F44C5141F4C04120F0A0005C60996193
:100F10009A6318629A6942F400629A619A6942F48B
:100F200080629A611A6A42F010021A621A6842F0EC
:100F300001021A60B3E5284B196A21F48071196225
:100F4000186A5C68D96921F0330141F0600120F42E
:100F500020605C60D961DA631862DA6942F00802E5
:100F6000DA61DA6942F00402DA611A6A42F48072E4
:100F70001A621A6842F001021A6090E501292FD026
:100F800002294FD0032970D004297FF488AD134B78
:100F9000196A21F480511962186A5C68D96921F4D0
:100FA0004C5141F4C04120F400505C60D9611A6496
:100FB0001862DA6942F40062DA61DA6942F4806246
:100FC000DA611A6A42F480521A621A6842F0010227
:100FD0001A6064E50004004000080040000C004076
:100FE000334B196A21F001011962196A586899692D
:100FF00021F0730141F06001586099615A63002249
:101000001A629A6942F008029A619A6942F00402EF
:101010009A611A6A42F001021A621A6842F00102E9
:101020001A603CE5224B196A21F010011962186A16
:101030005C68996921F44C5141F4C04120F0A00052
:101040005C6099619A6318629A6942F400629A61DD
:101050009A6942F480629A611A6A42F010021A6236
:101060001A6842F001021A6019E5114B196A21F45D
:1010700080711962186A5C68D96921F0330141F006
:10108000600120F420605C60D961DA631862DA697B
:1010900042F00802DA61DA6942F00402DA611A6A9F
:1010A00042F480721A621A6842F001021A60F6E491
:1010B000000C0040044B1A6822F004021A601A68FF
:1010C00042F002021A60704710E000E0024A136822
:1010D00023F001031360704710E000E00A4B196031
:1010E0000A4A002393604FF47A7303FB00F001383F
:1010F00020F07F405060136843F001031360044BFD
:1011000001221A70704700BF0401002010E000E0C7
:1011100008010020024B58689B68C01A704700BF46
:1011200010E000E008B5074B1B6803B19847064B79
:101130001B78012B00D008BD034B00221A70FFF76B
:10114000C5FFF8E704010020080100200D4B9A6854
:1011500022F001029A609A6822F002029A601A68EC
:1011600042F001021A609A6822F0F0029A609A68CE
:1011700042F080029A609A6822F460429A609A680B
:101180009A60704700380240032822D8DFE800F058
:10119000020A121A0F48036B012202FA01F11943E5
:1011A000016370470B48436B012202FA01F11943B6
:1011B000416370470748036C012202FA01F11943A9
:1011C000016470470348436C012202FA01F119439C
:1011D000416470470038024000F01F0240090123BB
:1011E0009340024A42F82030704700BF00E100E01F
:1011F00010B40378012B71D023B1022B00F0DB80F7
:1012000010BC7047A24B1A6841784C000321A140E2
:1012100022EA01021A601A68817844786400A140C9
:101220000A431A608378CBB1032B17D0012B26D049
:10123000022BE5D14378072B3DD8954A116A9B00D4
:101240000F2404FA03F321EA03031362136A81797A
:101250004078800081400B431362D1E78C4BDA6801
:1012600041784C000321A14022EA0102DA60DA68E9
:1012700041794078400081400A43DA60C0E7844BFE
:101280005A6844780121A14022EA01025A605A6852
:10129000C1780A435A609A6841784C000321A14002
:1012A00022EA01029A609A68017940784000814000
:1012B0000A439A60A4E7764A516A9B000F2404FA15
:1012C00003F321EA03035362516A84794378083BAC
:1012D0009B0004FA03F30B43536291E76D4B1A68CA
:1012E00041784C000321A14022EA01021A601A68E9
:1012F000817844786400A1400A431A608378D3B1AE
:10130000032B18D0012B27D0022B7FF479AF437821
:10131000072B3DD85F4A116A9B000F2404FA03F3A0
:1013200021EA03031362136A8179407880008140C7
:101330000B43136264E7574BDA6841784C00032192
:10134000A14022EA0102DA60DA684179407840007F
:1013500081400A43DA6053E74E4B5A6844780121D2
:10136000A14022EA01025A605A68C1780A435A60D1
:101370009A6841784C000321A14022EA01029A6058
:101380009A6801794078400081400A439A6037E7C3
:10139000404A516A9B000F2404FA03F321EA030335
:1013A0005362516A84794378083B9B0004FA03F343
:1013B0000B43536224E7384B1A6841784C000321F1
:1013C000A14022EA01021A601A6881784478640018
:1013D000A1400A431A608378E3B1032B1AD0012B92
:1013E00029D0022B7FF40CAF4378072B3FD92A4A30
:1013F000516A9B000F2404FA03F321EA03035362AA
:10140000516A84794378083B9B0004FA03F30B4349
:101410005362F5E6204BDA6841784C000321A14085
:1014200022EA0102DA60DA684179407840008140BE
:101430000A43DA60E4E6184B5A6844780121A14077
:1014400022EA01025A605A68C1780A435A609A68CF
:1014500041784C000321A14022EA01029A609A6877
:1014600001794078400081400A439A60C8E60A4A00
:10147000116A9B000F2404FA03F321EA03031362A9
:10148000136A81794078800081400B431362B7E68C
:101490000000024000040240000802400F2826D845
:1014A00001290ED0C9B1022921D1114B996801221D
:1014B00002FA00F001439960DA6822EA0000D8607D
:1014C00070470B4B9968012202FA00F021EA0001F3
:1014D0009960DA681043D8607047054A9168012323
:1014E00003FA00F001439160D3681843D06070475D
:1014F000003C01400F2800D9704710B5044C236808
:101500000122824013432360FFF7C8FF10BD00BFD4
:10151000003C014003494B69012202FA00F00343F9
:101520004B617047003C014010B1012803D0704767
:10153000024B19607047014B596070470C01002045
:1015400008B50020FFF7E6FF024B1B6803B1984780
:1015500008BD00BF0C01002008B50120FFF7DAFF2D
:10156000024B5B6803B1984708BD00BF0C01002027
:101570007047000038B50023234A1370234A012125
:10158000117017E0224951F8224040F633018C4295
:101590000ED91F4951F8221040F6C412914207D8C3
:1015A000012202FA05F51B490A782A43D2B20A70D1
:1015B0000133DBB2072B17D81D4603F11102144982
:1015C00051F82210B1F57A7FDCD3114951F822404D
:1015D00040F2DC518C42D5D801229A400D490D7859
:1015E00025EA02050D70E3E78047002305E0084A7D
:1015F000002142F823100133DBB2212BF7D9034B32
:1016000001221A7038BD00BFD80100200C00002054
:10161000500100204C01002038B5134B1B78DBB281
:10162000012B15D0114C2578EDB2FFF773FD104B4F
:1016300043F825000F494FF47A70FFF74FFD2378E8
:101640000133DBB223702378DBB2222B09D038BD03
:1016500008494FF47A70FFF741FD034B00221A70DE
:10166000F5E721222270F2E70C000020D8010020CB
:1016700050010020751500087047000008B5344B74
:101680001B78DBB2182B0FD0314B1B78DBB25E2BF3
:101690001FD02F4B1B78DBB2082B2FD02C4B1B7885
:1016A000DBB21C2B3FD008BD002201210220FFF736
:1016B000E7F90A2201210320FFF7E2F900220121C4
:1016C0000420FFF7DDF90A2202210520FFF7D8F9EF
:1016D000E9E7002201210220FFF7D2F9C822012107
:1016E0000320FFF7CDF9002201210420FFF7C8F9FC
:1016F0000A2202210520FFF7C3F9D4E70A220121BB
:101700000220FFF7BDF9002201210320FFF7B8F9FD
:101710000A2201210420FFF7B3F90022022105204B
:10172000FFF7AEF9BFE7642201210220FFF7A8F915
:10173000002201210320FFF7A3F9642201210420E4
:10174000FFF79EF9002202210520FFF799F9AAE789
:101750004C01002000B587B0FFF7F8FC00210846D7
:10176000FFF712FD0E210320FFF70EFDFFF7A2FC8D
:1017700000240494CDF813400294CDF80B400125C9
:101780008DF809508DF80A500094CDF803400226D8
:101790008DF801608DF8025004A8FFF729FD02A81A
:1017A000FFF726FD6846FFF723FD0D492046FFF7AA
:1017B000BBFE29462046FFF79DFE0620FFF70CFDE5
:1017C0003046FEF75BFF0320FEF758FF0420FEF7CC
:1017D00055FF0520FEF752FF0248FFF7CBFEFEE75C
:1017E000191600087D160008014B1868704700BFE5
:1017F0001000002030B5141E05469BB0184605DACF
:101800008B232B604FF0FF301BB030BD4FF40273C1
:10181000ADF80C3014BF04F1FF3323460293059357
:101820004FF6FF7300910491ADF80E3002461E9BF7
:101830006946284600F072F8431CBCBF8B232B601E
:10184000002CE1D0009B00221A70DDE707B5009361
:1018500013460A46014603480068FFF7CBFF03B072
:101860005DF804FB100000202DE9F0478E689E42D1
:1018700082460C469046994637D88A8912F4906F72
:1018800031D0256809696F1A6569022305EB4505A2
:1018900095FBF3F509F101033B449D4238BF1D461A
:1018A000530530D5294600F07DFB064650B90C2380
:1018B000CAF80030A38943F04003A3814FF0FF3002
:1018C000BDE8F0873A46216900F0FAFAA38923F4CB
:1018D000906343F08003A381266165613E44ED1B64
:1018E0002660A5604E464E4500D94E4632464146DA
:1018F000206800F0F0FAA3689B1BA36023681E44D5
:1019000026600020DCE72A4600F0A6FB06460028F9
:10191000E2D12169504600F0F7FAC8E72DE9F04F0F
:101920009DB0804603938B891D060C4616460FD545
:101930000B696BB9402100F035FB2060206128B9AC
:101940000C23C8F800304FF0FF30C7E0402363613C
:101950000023099320238DF8293030238DF82A3075
:101960004FF0010B37463D4615F8013B0BB1252BD7
:101970003ED1B7EB060A0BD05346324621464046CD
:10198000FFF772FF013000F0A480099B53440993D4
:101990003B78002B00F09D8000234FF0FF32CDE913
:1019A0000523049307938DF853301A932F4605228D
:1019B00017F8011B4F4800F033FA049BD0B9D90641
:1019C00044BF20228DF853201A0744BF2B228DF8E4
:1019D00053202A782A2A15D0079A2F4600200A2554
:1019E000394611F8013B303B092B4DD9B8B10FE016
:1019F0002F46B8E73F4A801A0BFA00F018430490CC
:101A00003D46D3E7039A111D12680391002A01DBBA
:101A1000079204E0524243F00203079204933B789A
:101A20002E2B0CD17B782A2B33D1039B1A1D1B68DC
:101A30000392002BB8BF4FF0FF33023705932E4DB2
:101A400039780322284600F0EBF938B14023401BD7
:101A500003FA00F0049B03430137049339782748C5
:101A60008DF8281006227E1C00F0DAF9002838D004
:101A7000234B13BB039B073323F007030833039364
:101A8000099B4B4409936DE705FB023201200F4689
:101A9000A6E700230137059319460A25384610F8B2
:101AA000012B303A092A03D9002BC8D00591C6E78B
:101AB00005FB012101230746F0E703AB0093224613
:101AC000104B04A94046AFF30080B0F1FF3F8146C0
:101AD000D6D1A3895B063FF536AF09981DB0BDE8A6
:101AE000F08F03AB00932246064B04A9404600F05A
:101AF00081F8EAE720220008262200082A220008AE
:101B000000000000691800082DE9F04791461F46C3
:101B10008A680B69DDF820809342B8BF1346C9F884
:101B2000003091F8432006460C4612B10133C9F843
:101B300000302368990642BFD9F800300233C9F853
:101B40000030256815F0060507D104F1190AE3688D
:101B5000D9F800209B1AAB4228DC94F84330226865
:101B6000003318BF012392062DD404F143023946F5
:101B70003046C047013020D02368E568D9F80020FE
:101B800003F00603042B08BFAD1AA36822690CBF3B
:101B900025EAE57500259342C4BF9B1AED184FF066
:101BA00000091A344D451AD1002008E0012352469D
:101BB00039463046C047013003D14FF0FF30BDE811
:101BC000F0870135C3E7E1185A1C302081F8430043
:101BD000224494F8451082F843100233C5E70123EC
:101BE000224639463046C0470130E6D009F10109A6
:101BF000D8E700002DE9F04301F1430C0C46097EC3
:101C000085B06E291746064698460C9A00F0B380B8
:101C100022D8632936D00AD8002900F0B980582983
:101C200000F0838004F1420584F8421032E0642918
:101C300001D06929F6D120681368050603F1040173
:101C40002AD51B681160002B03DA2D225B4284F831
:101C500043206F480A2239E0732900F09D8008D89C
:101C60006F2920D07029DDD1236843F02003236041
:101C700003E0752917D07829D4D1782384F845302A
:101C8000644855E01368191D1B68116004F1420592
:101C900084F8423001238CE01B68116010F0400F83
:101CA00018BF1BB2CFE713682568181D10602806FF
:101CB00001D51B6802E06806FBD51B8854486F29D4
:101CC00014BF0A220822002184F843106568A56029
:101CD000002DC0F29580216821F004012160002BC5
:101CE0003DD1002D40F08E806546082A0BD1236837
:101CF000DB0708D5236962689A42DEBF302305F806
:101D0000013C05F1FF35ACEB05032361CDF8008004
:101D10003B4603AA21463046FFF7F6FE01304DD17F
:101D20004FF0FF3005B0BDE8F083394884F8451026
:101D3000136821681D1D1B6815600A060BD5CA07AC
:101D400044BF41F0200121601BB9226822F020022B
:101D500022601022B7E74D0648BF9BB2EFE7654609
:101D6000B3FBF2F102FB1133C35C05F8013D0B46F6
:101D70000029F5D1B9E7136825686169181D10605D
:101D800028061B6801D5196002E06A06FBD5198098
:101D9000002323616546B9E71368191D11601D68AA
:101DA00062680021284600F03BF808B1401B6060E3
:101DB00063682361002384F84330A7E723692A4638
:101DC00039463046C0470130AAD023689B0713D458
:101DD000E068039B9842B8BF1846A3E701234A4630
:101DE00039463046C04701309AD00135E368039A3E
:101DF0009B1AAB42F2DCEBE7002504F11909F5E789
:101E0000002BACD1037884F8423004F142056CE732
:101E100031220008422200080000000000000000FB
:101E200001F0FF01102A2BDB10F0070F08D010F88B
:101E3000013B013A8B422DD010F0070F42B3F6D18F
:101E4000F0B441EA012141EA014122F007047FF0A8
:101E500000070023F0E80256083C85EA010586EAFF
:101E6000010685FA47F5A3FA87F586FA47F6A5FA3B
:101E700087F68EB9EED1F0BC01F0FF0102F0070247
:101E800032B110F8013B013A83EA010313B1F8D1F2
:101E90000020704701387047002D06BF35460338D3
:101EA000073815F0010F07D1013015F4807F02BF0C
:101EB000013015F4C03F0130F0BC0138704700BF5D
:101EC00010B5431E0A44914200D110BD11F8014BD8
:101ED00003F8014FF7E7884210B501EB020307D87A
:101EE000421E99420AD011F8014B02F8014FF8E75F
:101EF0008342F5D98118D21AD34200D110BD13F80C
:101F0000014D01F8014DF7E738B50546002945D0E8
:101F100051F8043C0C1F002BB8BFE41800F0D2F8B5
:101F20001F4A1368104633B9636014602846BDE841
:101F3000384000F0C8B8A3420CD921686218934217
:101F400004BF1A685B68636004BF521822600460B3
:101F5000ECE713465A680AB1A242FAD91968581830
:101F6000A0420BD120680144581882421960DDD18B
:101F7000106852685A6001441960D7E702D90C23EF
:101F80002B60D3E7206821188A4204BF1168526889
:101F9000626004BF091821605C60C7E738BD00BFFC
:101FA000DC01002070B5CD1C25F0030508350C2D93
:101FB00038BF0C25002D064601DBA94203D90C23AE
:101FC0003360002070BD00F07DF8214A146821467E
:101FD00091B9204C23681BB9304600F063F82060AB
:101FE0002946304600F05EF8431C24D10C233360B0
:101FF000304600F068F8E4E70B685B1B18D40B2B45
:102000000FD90B60CD50CC18304600F05CF804F1CD
:102010000B00231D20F00700C31AD3D05A42E25010
:10202000D0E78C424B6816BF636013600C46EBE749
:102030000C464968CCE7C41C24F00304A04205D038
:10204000211A304600F02EF80130CFD02560DBE7B2
:10205000DC010020E0010020F8B5074614460E46DA
:1020600021B91146BDE8F840FFF79CBF22B9FFF740
:102070004BFF25462846F8BD00F026F8A0420FD2B7
:1020800021463846FFF78EFF05460028F2D031463C
:102090002246FFF715FF31463846FFF735FFE9E7DF
:1020A0003546E7E738B5064C002305460846236069
:1020B000FEF7B8F9431C02D1236803B12B6038BD89
:1020C000E40100207047704751F8043C181F002BB2
:1020D000BCBF0B58C0187047537461636B206672A5
:1020E000616D653A0A000000205230203D20202515
:1020F0003038580A00000000205231203D202025B1
:102100003038580A00000000205232203D2020259F
:102110003038580A00000000205233203D2020258E
:102120003038580A0000000020523132203D20256E
:102130003038580A00000000204C52203D20202555
:102140003038580A00000000205043203D20202550
:102150003038580A0000000020505352203D2025FE
:102160003038580A000000004653522F4641523A78
:102170000A0000002043465352203D2020253038DD
:10218000580A00002048465352203D202025303870
:10219000580A00002044465352203D202025303864
:1021A000580A00002041465352203D202025303857
:1021B000580A0000204D4D464152203D2025303820
:1021C000580A00002042464152203D202025303848
:1021D000580A00004D6973630A000000204C522F1A
:1021E0004558435F52455455524E3D20253038588E
:1021F0000A0000005B486172644661756C745D0A98
:10220000000000005B4275734661756C745D0A00E6
:102210005B55736167654661756C745D0A0000000B
:10222000232D302B2000686C4C00656667454647BF
:102230000030313233343536373839414243444542
:1022400046003031323334353637383961626364B1
:03225000656600C0
:1022540078563412800000200000000001FFFFFFC8
:102264001400002000000000000000000000000036
:10227400000000000000000000000000000000005A
:10228400000000000000000000000000000000004A
:10229400000000000000000000000000000000003A
:1022A400000000000000000000000000000000002A
:1022B400000000000000000000000000000000001A
:0822C40000000000325476987E
:040000050800019559
:00000001FF
